S01D0000466C696D6D65726665656E536162693135303330372E73726563EE
S113000009C016C015C014C013C012C011C010C05E
S1130010D9C00EC011241FBECFE9CDBF20E0A0E699
S1130020B0E001C01D92A539B207E1F7EDD0A7C138
S1130030E7CF48B321E030E0062E01C0220F0A9436
S1130040EAF7922F9095942398BB07C0EFEAF4E067
S11300503197F1F700C0000081508111F7CF88B3C8
S1130060822B88BB0895CF93DF932FEF82E597E02F
S1130070215080409040E1F700C00000C0E0DC2F38
S1130080DE5F6C2F82E3D5DF2FE789EA93E021500E
S113009080409040E1F700C00000D15091F72FEF6D
S11300A082E597E0215080409040E1F700C00000D5
S11300B0CF5FC33021F7DF91CF910895CF93CCE088
S11300C01EC062E082E0B5DF2FEF86E791E02150A9
S11300D080409040E1F700C0000060E082E0A9DFCA
S11300E02FEF86E791E0215080409040E1F700C077
S11300F00000C15021F481E08093600005C080912C
S113010060008823F1F2F7CFCF910895F894BB9A59
S1130110C398379888E184BB7894089585B7877E1F
S1130120806185BFF89485B7806285BF789488958F
S113013085B78F7D85BF0895F894882319F087B318
S1130140886002C087B3877F87BBC39A8FED9EE226
S11301500197F1F700C0000078940895F894379A55
S1130160633011F493E001C092E097B9369A36995E
S1130170FECF24B135B1982F20E030E008C0915073
S1130180369A3699FECF44B155B1240F351F9111DB
S1130190F6CF7894682FC90170E0DDD0CB010895C3
S11301A0482FE5E6F0E080E090E060E005C02191B2
S11301B03191820F931F6F5F6413F9CF70E0CBD03E
S11301C0CB0108951F920F920FB60F9211248F93B3
S11301D0F894809164008F3F31F0809164008F5FC8
S11301E08093640002C0109264008091640080FFD8
S11301F002C088E601C08BE481BD78948F910F9092
S11302000FBE0F901F90189586B1856086B987B38D
S1130210876087BBBC9888B3876088BB80E08CDF2D
S11302202FEF35E38EE691E021503040804090403E
S1130230D9F700C0000017DF89E681BD789410E08B
S113024008E18091640080FD5BC0809164008F7040
S113025021F0809164008A3060F480E06DDF63E017
S113026088E07CDF21E08335934008F420E020938C
S1130270630080916300813009F042C05DDF64E077
S113028088E06CDFEC01183109F418DF812F602F4E
S113029056D080916000E92FF0E0EE0FFF1FEB597C
S11302A0FF4FD183C083192F1F5F811102C0812F9B
S11302B001C088E175DF9C012E5F3F4F2C173D077D
S11302C060F49091620081E0913009F480E08093C1
S11302D0610081E08093620013C09C0122503109C7
S11302E0C217D30758F49091620081E0911101C0C4
S11302F080E0809361001092620002C0109261005D
S113030080916400833020F080916400843120F077
S113031080916300813081F480916100811103C078
S113032061E082E008C080916200813011F462E0F3
S113033001C060E084E17DDEE9DEF0DE82CF991B5E
S113034079E004C0991F961708F0961B881F7A95C8
S1130350C9F780950895AA1BBB1B51E107C0AA1FCA
S1130360BB1FA617B70710F0A61BB70B881F991F52
S11303705A95A9F780959095BC01CD010895F894FC
S1050380FFCFA9
S9030000FC
